{
  "contractName": "Election",
  "abi": [
    {
      "inputs": [],
      "stateMutability": "nonpayable",
      "type": "constructor"
    },
    {
      "inputs": [],
      "name": "candidate",
      "outputs": [
        {
          "internalType": "string",
          "name": "",
          "type": "string"
        }
      ],
      "stateMutability": "view",
      "type": "function",
      "constant": true
    },
    {
      "inputs": [
        {
          "internalType": "uint256",
          "name": "",
          "type": "uint256"
        }
      ],
      "name": "candidates",
      "outputs": [
        {
          "internalType": "uint256",
          "name": "id",
          "type": "uint256"
        },
        {
          "internalType": "string",
          "name": "name",
          "type": "string"
        },
        {
          "internalType": "uint256",
          "name": "voteCount",
          "type": "uint256"
        }
      ],
      "stateMutability": "view",
      "type": "function",
      "constant": true
    },
    {
      "inputs": [],
      "name": "candidatesCount",
      "outputs": [
        {
          "internalType": "uint256",
          "name": "",
          "type": "uint256"
        }
      ],
      "stateMutability": "view",
      "type": "function",
      "constant": true
    }
  ],
  "bytecode": "0x608060405234801561001057600080fd5b506100556040518060400160405280600b81526020017f43616e646964617465203100000000000000000000000000000000000000000081525061009e60201b60201c565b6100996040518060400160405280600b81526020017f43616e646964617465203200000000000000000000000000000000000000000081525061009e60201b60201c565b6102a5565b600160008154809291906100b1906101fe565b9190505550604051806060016040528060015481526020018281526020016000815250600080600154815260200190815260200160002060008201518160000155602082015181600101908051906020019061010e92919061011f565b506040820151816002015590505050565b82805461012b906101cc565b90600052602060002090601f01602090048101928261014d5760008555610194565b82601f1061016657805160ff1916838001178555610194565b82800160010185558215610194579182015b82811115610193578251825591602001919060010190610178565b5b5090506101a191906101a5565b5090565b5b808211156101be5760008160009055506001016101a6565b5090565b6000819050919050565b600060028204905060018216806101e457607f821691505b602082108114156101f8576101f7610276565b5b50919050565b6000610209826101c2565b91507fffffffffffffffffffffffffffffffffffffffffffffffffffffffffffffffff82141561023c5761023b610247565b5b600182019050919050565b7f4e487b7100000000000000000000000000000000000000000000000000000000600052601160045260246000fd5b7f4e487b7100000000000000000000000000000000000000000000000000000000600052602260045260246000fd5b610413806102b46000396000f3fe608060405234801561001057600080fd5b50600436106100415760003560e01c80632d35a8a2146100465780633477ee2e146100645780636c8381f814610096575b600080fd5b61004e6100b4565b60405161005b91906102a2565b60405180910390f35b61007e6004803603810190610079919061020f565b6100ba565b60405161008d939291906102bd565b60405180910390f35b61009e61016c565b6040516100ab9190610280565b60405180910390f35b60015481565b60006020528060005260406000206000915090508060000154908060010180546100e390610354565b80601f016020809104026020016040519081016040528092919081815260200182805461010f90610354565b801561015c5780601f106101315761010080835404028352916020019161015c565b820191906000526020600020905b81548152906001019060200180831161013f57829003601f168201915b5050505050908060020154905083565b6002805461017990610354565b80601f01602080910402602001604051908101604052809291908181526020018280546101a590610354565b80156101f25780601f106101c7576101008083540402835291602001916101f2565b820191906000526020600020905b8154815290600101906020018083116101d557829003601f168201915b505050505081565b600081359050610209816103c6565b92915050565b60006020828403121561022157600080fd5b600061022f848285016101fa565b91505092915050565b6000610243826102fb565b61024d8185610306565b935061025d818560208601610321565b610266816103b5565b840191505092915050565b61027a81610317565b82525050565b6000602082019050818103600083015261029a8184610238565b905092915050565b60006020820190506102b76000830184610271565b92915050565b60006060820190506102d26000830186610271565b81810360208301526102e48185610238565b90506102f36040830184610271565b949350505050565b600081519050919050565b600082825260208201905092915050565b6000819050919050565b60005b8381101561033f578082015181840152602081019050610324565b8381111561034e576000848401525b50505050565b6000600282049050600182168061036c57607f821691505b602082108114156103805761037f610386565b5b50919050565b7f4e487b7100000000000000000000000000000000000000000000000000000000600052602260045260246000fd5b6000601f19601f8301169050919050565b6103cf81610317565b81146103da57600080fd5b5056fea26469706673582212203de56d4454300f9a00ed572e938771b233a9e47d4b3a7a57e46e98a49b4a0b7a64736f6c63430008040033",
  "immutableReferences": {},
  "source": "// SPDX-License-Identifier: MIT\npragma solidity >=0.4.22 <0.9.0;\n\ncontract Election {\n\n    // Model the cadidates\n    struct Candidate {\n        uint id;\n        string name;\n        uint voteCount;\n    }\n\n    // Store Candidates\n    mapping(uint => Candidate) public candidates;\n\n    // Store Candidate Count so we can determine how many there actually are in our mapping object\n    uint public candidatesCount;\n\n    string public candidate;\n\n    constructor() {\n        addCandidate(\"Candidate 1\");\n        addCandidate(\"Candidate 2\");\n\n    }\n\n    // Define an addCandidates function\n    function addCandidate(string memory _name) private {\n        // Increment the Candidates count\n        candidatesCount ++;\n\n        // Set the new candidate at the newly incremented candidate count\n        // within our mapping to an instantiation of the Candidate struct \n        // with the new parameters of candidatesCount as the id, _name passed\n        // from the addCandidate argument as the candidates name, and 0\n        // representing the candidates initial voteCount\n        candidates[candidatesCount] = Candidate(candidatesCount, _name, 0);\n    }\n}",
  "sourcePath": "/Users/marleykanui/Desktop/dapps/voting-dapp/contracts/Election.sol",
  "compiler": {
    "name": "solc",
    "version": "0.8.4+commit.c7e474f2.Emscripten.clang"
  },
  "schemaVersion": "3.4.0",
  "updatedAt": "2021-05-13T04:44:01.558Z",
  "networkType": "ethereum",
  "devdoc": {
    "kind": "dev",
    "methods": {},
    "version": 1
  },
  "userdoc": {
    "kind": "user",
    "methods": {},
    "version": 1
  }
}